{
  "fileName": "matching_market.sol",
  "contractName": "MatchingMarket",
  "source": "/// matching_market.sol\n// Copyright (C) 2017 - 2020 Maker Ecosystem Growth Holdings, INC.\n\n//\n// This program is free software: you can redistribute it and/or modify\n// it under the terms of the GNU Affero General Public License as published by\n// the Free Software Foundation, either version 3 of the License, or\n// (at your option) any later version.\n//\n// This program is distributed in the hope that it will be useful,\n// but WITHOUT ANY WARRANTY; without even the implied warranty of\n// MERCHANTABILITY or FITNESS FOR A PARTICULAR PURPOSE.  See the\n// GNU Affero General Public License for more details.\n//\n// You should have received a copy of the GNU Affero General Public License\n// along with this program.  If not, see <https://www.gnu.org/licenses/>.\n\npragma solidity ^0.5.12;\n\nimport \"./expiring_market.sol\";\n\ncontract MatchingEvents {\n    event LogBuyEnabled(bool isEnabled);\n    event LogMinSell(address pay_gem, uint min_amount);\n    event LogMatchingEnabled(bool isEnabled);\n    event LogUnsortedOffer(uint id);\n    event LogSortedOffer(uint id);\n    event LogInsert(address keeper, uint id);\n    event LogDelete(address keeper, uint id);\n}\n\ncontract MatchingMarket is MatchingEvents, ExpiringMarket {\n    bool public buyEnabled = true;      //buy enabled\n    bool public matchingEnabled = true; //true: enable matching,\n                                         //false: revert to expiring market\n    string public _name;      //buy enabled\n\n    struct sortInfo {\n        uint next;  //points to id of next higher offer\n        uint prev;  //points to id of previous lower offer\n        uint delb;  //the blocknumber where this entry was marked for delete\n    }\n    mapping(uint => sortInfo) public _rank;                     //doubly linked lists of sorted offer ids\n    mapping(address => mapping(address => uint)) public _best;  //id of the highest offer for a token pair\n    mapping(address => mapping(address => uint)) public _span;  //number of offers stored for token pair in sorted orderbook\n    mapping(address => uint) public _dust;                      //minimum sell amount for a token to avoid dust offers\n    mapping(uint => uint) public _near;         //next unsorted offer id\n    uint _head;                                 //first unsorted offer id\n    uint public dustId;                         // id of the latest offer marked as dust\n\n\n    constructor(string memory name_, uint64 close_time) ExpiringMarket(close_time) public {\n      _name = name_;\n    }\n\n    // After close, anyone can cancel an offer\n    modifier can_cancel(uint id) {\n        require(isActive(id), \"Offer was deleted or taken, or never existed.\");\n        require(\n            isClosed() || msg.sender == getOwner(id) || id == dustId,\n            \"Offer can not be cancelled because user is not owner, and market is open, and offer sells required amount of tokens.\"\n        );\n        _;\n    }\n\n    // ---- Public entrypoints ---- //\n\n    function make(\n        ERC20    pay_gem,\n        ERC20    buy_gem,\n        uint128  pay_amt,\n        uint128  buy_amt\n    )\n        public\n        returns (bytes32)\n    {\n        return bytes32(offer(pay_amt, pay_gem, buy_amt, buy_gem));\n    }\n\n    function take(bytes32 id, uint128 maxTakeAmount) public {\n        require(buy(uint256(id), maxTakeAmount));\n    }\n\n    function kill(bytes32 id) public {\n        require(cancel(uint256(id)));\n    }\n\n    // Make a new offer. Takes funds from the caller into market escrow.\n    //\n    // If matching is enabled:\n    //     * creates new offer without putting it in\n    //       the sorted list.\n    //     * available to authorized contracts only!\n    //     * keepers should call insert(id,pos)\n    //       to put offer in the sorted list.\n    //\n    // If matching is disabled:\n    //     * calls expiring market's offer().\n    //     * available to everyone without authorization.\n    //     * no sorting is done.\n    //\n    function offer(\n        uint pay_amt,    //maker (ask) sell how much\n        ERC20 pay_gem,   //maker (ask) sell which token\n        uint buy_amt,    //taker (ask) buy how much\n        ERC20 buy_gem    //taker (ask) buy which token\n    )\n        public\n        returns (uint)\n    {\n        require(!locked, \"Reentrancy attempt\");\n        function (uint256,ERC20,uint256,ERC20) returns (uint256) fn = matchingEnabled ? _offeru : super.offer;\n        return fn(pay_amt, pay_gem, buy_amt, buy_gem);\n    }\n\n    // Make a new offer. Takes funds from the caller into market escrow.\n    function offer(\n        uint pay_amt,    //maker (ask) sell how much\n        ERC20 pay_gem,   //maker (ask) sell which token\n        uint buy_amt,    //maker (ask) buy how much\n        ERC20 buy_gem,   //maker (ask) buy which token\n        uint pos         //position to insert offer, 0 should be used if unknown\n    )\n        public\n        can_offer\n        returns (uint)\n    {\n        return offer(pay_amt, pay_gem, buy_amt, buy_gem, pos, true);\n    }\n\n    function offer(\n        uint pay_amt,    //maker (ask) sell how much\n        ERC20 pay_gem,   //maker (ask) sell which token\n        uint buy_amt,    //maker (ask) buy how much\n        ERC20 buy_gem,   //maker (ask) buy which token\n        uint pos,        //position to insert offer, 0 should be used if unknown\n        bool rounding    //match \"close enough\" orders?\n    )\n        public\n        can_offer\n        returns (uint)\n    {\n        require(!locked, \"Reentrancy attempt\");\n        require(_dust[address(pay_gem)] <= pay_amt);\n\n        if (matchingEnabled) {\n          return _matcho(pay_amt, pay_gem, buy_amt, buy_gem, pos, rounding);\n        }\n        return super.offer(pay_amt, pay_gem, buy_amt, buy_gem);\n    }\n\n    //Transfers funds from caller to offer maker, and from market to caller.\n    function buy(uint id, uint amount)\n        public\n        can_buy(id)\n        returns (bool)\n    {\n        require(!locked, \"Reentrancy attempt\");\n        function (uint256,uint256) returns (bool) fn = matchingEnabled ? _buys : super.buy;\n        return fn(id, amount);\n    }\n\n    // Cancel an offer. Refunds offer maker.\n    function cancel(uint id)\n        public\n        can_cancel(id)\n        returns (bool success)\n    {\n        require(!locked, \"Reentrancy attempt\");\n        if (matchingEnabled) {\n            if (isOfferSorted(id)) {\n                require(_unsort(id));\n            } else {\n                require(_hide(id));\n            }\n        }\n        return super.cancel(id);    //delete the offer.\n    }\n\n    //insert offer into the sorted list\n    //keepers need to use this function\n    function insert(\n        uint id,   //maker (ask) id\n        uint pos   //position to insert into\n    )\n        public\n        returns (bool)\n    {\n        require(!locked, \"Reentrancy attempt\");\n        require(!isOfferSorted(id));    //make sure offers[id] is not yet sorted\n        require(isActive(id));          //make sure offers[id] is active\n\n        _hide(id);                      //remove offer from unsorted offers list\n        _sort(id, pos);                 //put offer into the sorted offers list\n        emit LogInsert(msg.sender, id);\n        return true;\n    }\n\n    //deletes _rank [id]\n    //  Function should be called by keepers.\n    function del_rank(uint id)\n        public\n        returns (bool)\n    {\n        require(!locked, \"Reentrancy attempt\");\n        require(!isActive(id) && _rank[id].delb != 0 && _rank[id].delb < block.number - 10);\n        delete _rank[id];\n        emit LogDelete(msg.sender, id);\n        return true;\n    }\n\n    //set the minimum sell amount for a token\n    //    Function is used to avoid \"dust offers\" that have\n    //    very small amount of tokens to sell, and it would\n    //    cost more gas to accept the offer, than the value\n    //    of tokens received.\n    function setMinSell(\n        ERC20 pay_gem,     //token to assign minimum sell amount to\n        uint dust          //maker (ask) minimum sell amount\n    )\n        public\n        returns (bool)\n    {\n        _dust[address(pay_gem)] = dust;\n        emit LogMinSell(address(pay_gem), dust);\n        return true;\n    }\n\n    //returns the minimum sell amount for an offer\n    function getMinSell(\n        ERC20 pay_gem      //token for which minimum sell amount is queried\n    )\n        public\n        view\n        returns (uint)\n    {\n        return _dust[address(pay_gem)];\n    }\n\n    //set buy functionality enabled/disabled\n    function setBuyEnabled(bool buyEnabled_) public returns (bool) {\n        buyEnabled = buyEnabled_;\n        emit LogBuyEnabled(buyEnabled);\n        return true;\n    }\n\n    //set matching enabled/disabled\n    //    If matchingEnabled true(default), then inserted offers are matched.\n    //    Except the ones inserted by contracts, because those end up\n    //    in the unsorted list of offers, that must be later sorted by\n    //    keepers using insert().\n    //    If matchingEnabled is false then MatchingMarket is reverted to ExpiringMarket,\n    //    and matching is not done, and sorted lists are disabled.\n    function setMatchingEnabled(bool matchingEnabled_) public returns (bool) {\n        matchingEnabled = matchingEnabled_;\n        emit LogMatchingEnabled(matchingEnabled);\n        return true;\n    }\n\n    //return the best offer for a token pair\n    //      the best offer is the lowest one if it's an ask,\n    //      and highest one if it's a bid offer\n    function getBestOffer(ERC20 sell_gem, ERC20 buy_gem) public view returns(uint) {\n        return _best[address(sell_gem)][address(buy_gem)];\n    }\n\n    //return the next worse offer in the sorted list\n    //      the worse offer is the higher one if its an ask,\n    //      a lower one if its a bid offer,\n    //      and in both cases the newer one if they're equal.\n    function getWorseOffer(uint id) public view returns(uint) {\n        return _rank[id].prev;\n    }\n\n    //return the next better offer in the sorted list\n    //      the better offer is in the lower priced one if its an ask,\n    //      the next higher priced one if its a bid offer\n    //      and in both cases the older one if they're equal.\n    function getBetterOffer(uint id) public view returns(uint) {\n\n        return _rank[id].next;\n    }\n\n    //return the amount of better offers for a token pair\n    function getOfferCount(ERC20 sell_gem, ERC20 buy_gem) public view returns(uint) {\n        return _span[address(sell_gem)][address(buy_gem)];\n    }\n\n    //get the first unsorted offer that was inserted by a contract\n    //      Contracts can't calculate the insertion position of their offer because it is not an O(1) operation.\n    //      Their offers get put in the unsorted list of offers.\n    //      Keepers can calculate the insertion position offchain and pass it to the insert() function to insert\n    //      the unsorted offer into the sorted list. Unsorted offers will not be matched, but can be bought with buy().\n    function getFirstUnsortedOffer() public view returns(uint) {\n        return _head;\n    }\n\n    //get the next unsorted offer\n    //      Can be used to cycle through all the unsorted offers.\n    function getNextUnsortedOffer(uint id) public view returns(uint) {\n        return _near[id];\n    }\n\n    function isOfferSorted(uint id) public view returns(bool) {\n        return _rank[id].next != 0\n               || _rank[id].prev != 0\n               || _best[address(offers[id].pay_gem)][address(offers[id].buy_gem)] == id;\n    }\n\n    function sellAllAmount(ERC20 pay_gem, uint pay_amt, ERC20 buy_gem, uint min_fill_amount)\n        public\n        returns (uint fill_amt)\n    {\n        require(!locked, \"Reentrancy attempt\");\n        uint offerId;\n        while (pay_amt > 0) {                           //while there is amount to sell\n            offerId = getBestOffer(buy_gem, pay_gem);   //Get the best offer for the token pair\n            require(offerId != 0);                      //Fails if there are not more offers\n\n            // There is a chance that pay_amt is smaller than 1 wei of the other token\n            if (pay_amt * 1 ether < wdiv(offers[offerId].buy_amt, offers[offerId].pay_amt)) {\n                break;                                  //We consider that all amount is sold\n            }\n            if (pay_amt >= offers[offerId].buy_amt) {                       //If amount to sell is higher or equal than current offer amount to buy\n                fill_amt = add(fill_amt, offers[offerId].pay_amt);          //Add amount bought to acumulator\n                pay_amt = sub(pay_amt, offers[offerId].buy_amt);            //Decrease amount to sell\n                take(bytes32(offerId), uint128(offers[offerId].pay_amt));   //We take the whole offer\n            } else { // if lower\n                uint256 baux = rmul(pay_amt * 10 ** 9, rdiv(offers[offerId].pay_amt, offers[offerId].buy_amt)) / 10 ** 9;\n                fill_amt = add(fill_amt, baux);         //Add amount bought to acumulator\n                take(bytes32(offerId), uint128(baux));  //We take the portion of the offer that we need\n                pay_amt = 0;                            //All amount is sold\n            }\n        }\n        require(fill_amt >= min_fill_amount);\n    }\n\n    function buyAllAmount(ERC20 buy_gem, uint buy_amt, ERC20 pay_gem, uint max_fill_amount)\n        public\n        returns (uint fill_amt)\n    {\n        require(!locked, \"Reentrancy attempt\");\n        uint offerId;\n        while (buy_amt > 0) {                           //Meanwhile there is amount to buy\n            offerId = getBestOffer(buy_gem, pay_gem);   //Get the best offer for the token pair\n            require(offerId != 0);\n\n            // There is a chance that buy_amt is smaller than 1 wei of the other token\n            if (buy_amt * 1 ether < wdiv(offers[offerId].pay_amt, offers[offerId].buy_amt)) {\n                break;                                  //We consider that all amount is sold\n            }\n            if (buy_amt >= offers[offerId].pay_amt) {                       //If amount to buy is higher or equal than current offer amount to sell\n                fill_amt = add(fill_amt, offers[offerId].buy_amt);          //Add amount sold to acumulator\n                buy_amt = sub(buy_amt, offers[offerId].pay_amt);            //Decrease amount to buy\n                take(bytes32(offerId), uint128(offers[offerId].pay_amt));   //We take the whole offer\n            } else {                                                        //if lower\n                fill_amt = add(fill_amt, rmul(buy_amt * 10 ** 9, rdiv(offers[offerId].buy_amt, offers[offerId].pay_amt)) / 10 ** 9); //Add amount sold to acumulator\n                take(bytes32(offerId), uint128(buy_amt));                   //We take the portion of the offer that we need\n                buy_amt = 0;                                                //All amount is bought\n            }\n        }\n        require(fill_amt <= max_fill_amount);\n    }\n\n    function getBuyAmount(ERC20 buy_gem, ERC20 pay_gem, uint pay_amt) public view returns (uint fill_amt) {\n        uint256 offerId = getBestOffer(buy_gem, pay_gem);           //Get best offer for the token pair\n        while (pay_amt > offers[offerId].buy_amt) {\n            fill_amt = add(fill_amt, offers[offerId].pay_amt);  //Add amount to buy accumulator\n            pay_amt = sub(pay_amt, offers[offerId].buy_amt);    //Decrease amount to pay\n            if (pay_amt > 0) {                                  //If we still need more offers\n                offerId = getWorseOffer(offerId);               //We look for the next best offer\n                require(offerId != 0);                          //Fails if there are not enough offers to complete\n            }\n        }\n        fill_amt = add(fill_amt, rmul(pay_amt * 10 ** 9, rdiv(offers[offerId].pay_amt, offers[offerId].buy_amt)) / 10 ** 9); //Add proportional amount of last offer to buy accumulator\n    }\n\n    function getPayAmount(ERC20 pay_gem, ERC20 buy_gem, uint buy_amt) public view returns (uint fill_amt) {\n        uint256 offerId = getBestOffer(buy_gem, pay_gem);           //Get best offer for the token pair\n        while (buy_amt > offers[offerId].pay_amt) {\n            fill_amt = add(fill_amt, offers[offerId].buy_amt);  //Add amount to pay accumulator\n            buy_amt = sub(buy_amt, offers[offerId].pay_amt);    //Decrease amount to buy\n            if (buy_amt > 0) {                                  //If we still need more offers\n                offerId = getWorseOffer(offerId);               //We look for the next best offer\n                require(offerId != 0);                          //Fails if there are not enough offers to complete\n            }\n        }\n        fill_amt = add(fill_amt, rmul(buy_amt * 10 ** 9, rdiv(offers[offerId].buy_amt, offers[offerId].pay_amt)) / 10 ** 9); //Add proportional amount of last offer to pay accumulator\n    }\n\n    // ---- Internal Functions ---- //\n\n    function _buys(uint id, uint amount)\n        internal\n        returns (bool)\n    {\n        require(buyEnabled);\n        if (amount == offers[id].pay_amt) {\n            if (isOfferSorted(id)) {\n                //offers[id] must be removed from sorted list because all of it is bought\n                _unsort(id);\n            }else{\n                _hide(id);\n            }\n        }\n        require(super.buy(id, amount));\n        // If offer has become dust during buy, we cancel it\n        if (isActive(id) && offers[id].pay_amt < _dust[address(offers[id].pay_gem)]) {\n            dustId = id; //enable current msg.sender to call cancel(id)\n            cancel(id);\n        }\n        return true;\n    }\n\n    //find the id of the next higher offer after offers[id]\n    function _find(uint id)\n        internal\n        view\n        returns (uint)\n    {\n        require( id > 0 );\n\n        address buy_gem = address(offers[id].buy_gem);\n        address pay_gem = address(offers[id].pay_gem);\n        uint top = _best[pay_gem][buy_gem];\n        uint old_top = 0;\n\n        // Find the larger-than-id order whose successor is less-than-id.\n        while (top != 0 && _isPricedLtOrEq(id, top)) {\n            old_top = top;\n            top = _rank[top].prev;\n        }\n        return old_top;\n    }\n\n    //find the id of the next higher offer after offers[id]\n    function _findpos(uint id, uint pos)\n        internal\n        view\n        returns (uint)\n    {\n        require(id > 0);\n\n        // Look for an active order.\n        while (pos != 0 && !isActive(pos)) {\n            pos = _rank[pos].prev;\n        }\n\n        if (pos == 0) {\n            //if we got to the end of list without a single active offer\n            return _find(id);\n\n        } else {\n            // if we did find a nearby active offer\n            // Walk the order book down from there...\n            if(_isPricedLtOrEq(id, pos)) {\n                uint old_pos;\n\n                // Guaranteed to run at least once because of\n                // the prior if statements.\n                while (pos != 0 && _isPricedLtOrEq(id, pos)) {\n                    old_pos = pos;\n                    pos = _rank[pos].prev;\n                }\n                return old_pos;\n\n            // ...or walk it up.\n            } else {\n                while (pos != 0 && !_isPricedLtOrEq(id, pos)) {\n                    pos = _rank[pos].next;\n                }\n                return pos;\n            }\n        }\n    }\n\n    //return true if offers[low] priced less than or equal to offers[high]\n    function _isPricedLtOrEq(\n        uint low,   //lower priced offer's id\n        uint high   //higher priced offer's id\n    )\n        internal\n        view\n        returns (bool)\n    {\n        return mul(offers[low].buy_amt, offers[high].pay_amt)\n          >= mul(offers[high].buy_amt, offers[low].pay_amt);\n    }\n\n    //these variables are global only because of solidity local variable limit\n\n    //match offers with taker offer, and execute token transactions\n    function _matcho(\n        uint t_pay_amt,    //taker sell how much\n        ERC20 t_pay_gem,   //taker sell which token\n        uint t_buy_amt,    //taker buy how much\n        ERC20 t_buy_gem,   //taker buy which token\n        uint pos,          //position id\n        bool rounding      //match \"close enough\" orders?\n    )\n        internal\n        returns (uint id)\n    {\n        uint best_maker_id;    //highest maker id\n        uint t_buy_amt_old;    //taker buy how much saved\n        uint m_buy_amt;        //maker offer wants to buy this much token\n        uint m_pay_amt;        //maker offer wants to sell this much token\n\n        // there is at least one offer stored for token pair\n        while (_best[address(t_buy_gem)][address(t_pay_gem)] > 0) {\n            best_maker_id = _best[address(t_buy_gem)][address(t_pay_gem)];\n            m_buy_amt = offers[best_maker_id].buy_amt;\n            m_pay_amt = offers[best_maker_id].pay_amt;\n\n            // Ugly hack to work around rounding errors. Based on the idea that\n            // the furthest the amounts can stray from their \"true\" values is 1.\n            // Ergo the worst case has t_pay_amt and m_pay_amt at +1 away from\n            // their \"correct\" values and m_buy_amt and t_buy_amt at -1.\n            // Since (c - 1) * (d - 1) > (a + 1) * (b + 1) is equivalent to\n            // c * d > a * b + a + b + c + d, we write...\n            if (mul(m_buy_amt, t_buy_amt) > mul(t_pay_amt, m_pay_amt) +\n                (rounding ? m_buy_amt + t_buy_amt + t_pay_amt + m_pay_amt : 0))\n            {\n                break;\n            }\n            // ^ The `rounding` parameter is a compromise borne of a couple days\n            // of discussion.\n            buy(best_maker_id, min(m_pay_amt, t_buy_amt));\n            t_buy_amt_old = t_buy_amt;\n            t_buy_amt = sub(t_buy_amt, min(m_pay_amt, t_buy_amt));\n            t_pay_amt = mul(t_buy_amt, t_pay_amt) / t_buy_amt_old;\n\n            if (t_pay_amt == 0 || t_buy_amt == 0) {\n                break;\n            }\n        }\n\n        if (t_buy_amt > 0 && t_pay_amt > 0 && t_pay_amt >= _dust[address(t_pay_gem)]) {\n            //new offer should be created\n            id = super.offer(t_pay_amt, t_pay_gem, t_buy_amt, t_buy_gem);\n            //insert offer into the sorted list\n            _sort(id, pos);\n        }\n    }\n\n    // Make a new offer without putting it in the sorted list.\n    // Takes funds from the caller into market escrow.\n    // ****Available to authorized contracts only!**********\n    // Keepers should call insert(id,pos) to put offer in the sorted list.\n    function _offeru(\n        uint pay_amt,      //maker (ask) sell how much\n        ERC20 pay_gem,     //maker (ask) sell which token\n        uint buy_amt,      //maker (ask) buy how much\n        ERC20 buy_gem      //maker (ask) buy which token\n    )\n        internal\n        returns (uint id)\n    {\n        require(_dust[address(pay_gem)] <= pay_amt);\n        id = super.offer(pay_amt, pay_gem, buy_amt, buy_gem);\n        _near[id] = _head;\n        _head = id;\n        emit LogUnsortedOffer(id);\n    }\n\n    //put offer into the sorted list\n    function _sort(\n        uint id,    //maker (ask) id\n        uint pos    //position to insert into\n    )\n        internal\n    {\n        require(isActive(id));\n\n        ERC20 buy_gem = offers[id].buy_gem;\n        ERC20 pay_gem = offers[id].pay_gem;\n        uint prev_id;                                      //maker (ask) id\n\n        pos = pos == 0 || offers[pos].pay_gem != pay_gem || offers[pos].buy_gem != buy_gem || !isOfferSorted(pos)\n        ?\n            _find(id)\n        :\n            _findpos(id, pos);\n\n        if (pos != 0) {                                    //offers[id] is not the highest offer\n            //requirement below is satisfied by statements above\n            //require(_isPricedLtOrEq(id, pos));\n            prev_id = _rank[pos].prev;\n            _rank[pos].prev = id;\n            _rank[id].next = pos;\n        } else {                                           //offers[id] is the highest offer\n            prev_id = _best[address(pay_gem)][address(buy_gem)];\n            _best[address(pay_gem)][address(buy_gem)] = id;\n        }\n\n        if (prev_id != 0) {                               //if lower offer does exist\n            //requirement below is satisfied by statements above\n            //require(!_isPricedLtOrEq(id, prev_id));\n            _rank[prev_id].next = id;\n            _rank[id].prev = prev_id;\n        }\n\n        _span[address(pay_gem)][address(buy_gem)]++;\n        emit LogSortedOffer(id);\n    }\n\n    // Remove offer from the sorted list (does not cancel offer)\n    function _unsort(\n        uint id    //id of maker (ask) offer to remove from sorted list\n    )\n        internal\n        returns (bool)\n    {\n        address buy_gem = address(offers[id].buy_gem);\n        address pay_gem = address(offers[id].pay_gem);\n        require(_span[pay_gem][buy_gem] > 0);\n\n        require(_rank[id].delb == 0 &&                    //assert id is in the sorted list\n                 isOfferSorted(id));\n\n        if (id != _best[pay_gem][buy_gem]) {              // offers[id] is not the highest offer\n            require(_rank[_rank[id].next].prev == id);\n            _rank[_rank[id].next].prev = _rank[id].prev;\n        } else {                                          //offers[id] is the highest offer\n            _best[pay_gem][buy_gem] = _rank[id].prev;\n        }\n\n        if (_rank[id].prev != 0) {                        //offers[id] is not the lowest offer\n            require(_rank[_rank[id].prev].next == id);\n            _rank[_rank[id].prev].next = _rank[id].next;\n        }\n\n        _span[pay_gem][buy_gem]--;\n        _rank[id].delb = block.number;                    //mark _rank[id] for deletion\n        return true;\n    }\n\n    //Hide offer from the unsorted order book (does not cancel offer)\n    function _hide(\n        uint id     //id of maker offer to remove from unsorted list\n    )\n        internal\n        returns (bool)\n    {\n        uint uid = _head;               //id of an offer in unsorted offers list\n        uint pre = uid;                 //id of previous offer in unsorted offers list\n\n        require(!isOfferSorted(id));    //make sure offer id is not in sorted offers list\n\n        if (_head == id) {              //check if offer is first offer in unsorted offers list\n            _head = _near[id];          //set head to new first unsorted offer\n            _near[id] = 0;              //delete order from unsorted order list\n            return true;\n        }\n        while (uid > 0 && uid != id) {  //find offer in unsorted order list\n            pre = uid;\n            uid = _near[uid];\n        }\n        if (uid != id) {                //did not find offer id in unsorted offers list\n            return false;\n        }\n        _near[pre] = _near[id];         //set previous unsorted offer to point to offer after offer id\n        _near[id] = 0;                  //delete order from unsorted order list\n        return true;\n    }\n\n    function name()\n        public\n        view\n        returns (string memory)\n    {\n        return _name;\n    }\n}\n",
  "sourcePath": "contracts/matching_market.sol",
  "abi": [
    {
      "inputs": [
        {
          "internalType": "string",
          "name": "name_",
          "type": "string"
        },
        {
          "internalType": "uint64",
          "name": "close_time",
          "type": "uint64"
        }
      ],
      "payable": false,
      "stateMutability": "nonpayable",
      "type": "constructor"
    },
    {
      "anonymous": false,
      "inputs": [
        {
          "indexed": true,
          "internalType": "bytes32",
          "name": "id",
          "type": "bytes32"
        },
        {
          "indexed": true,
          "internalType": "bytes32",
          "name": "pair",
          "type": "bytes32"
        },
        {
          "indexed": true,
          "internalType": "address",
          "name": "maker",
          "type": "address"
        },
        {
          "indexed": false,
          "internalType": "contract ERC20",
          "name": "pay_gem",
          "type": "address"
        },
        {
          "indexed": false,
          "internalType": "contract ERC20",
          "name": "buy_gem",
          "type": "address"
        },
        {
          "indexed": false,
          "internalType": "uint128",
          "name": "pay_amt",
          "type": "uint128"
        },
        {
          "indexed": false,
          "internalType": "uint128",
          "name": "buy_amt",
          "type": "uint128"
        },
        {
          "indexed": false,
          "internalType": "uint64",
          "name": "timestamp",
          "type": "uint64"
        }
      ],
      "name": "LogBump",
      "type": "event"
    },
    {
      "anonymous": false,
      "inputs": [
        {
          "indexed": false,
          "internalType": "bool",
          "name": "isEnabled",
          "type": "bool"
        }
      ],
      "name": "LogBuyEnabled",
      "type": "event"
    },
    {
      "anonymous": false,
      "inputs": [
        {
          "indexed": false,
          "internalType": "address",
          "name": "keeper",
          "type": "address"
        },
        {
          "indexed": false,
          "internalType": "uint256",
          "name": "id",
          "type": "uint256"
        }
      ],
      "name": "LogDelete",
      "type": "event"
    },
    {
      "anonymous": false,
      "inputs": [
        {
          "indexed": false,
          "internalType": "address",
          "name": "keeper",
          "type": "address"
        },
        {
          "indexed": false,
          "internalType": "uint256",
          "name": "id",
          "type": "uint256"
        }
      ],
      "name": "LogInsert",
      "type": "event"
    },
    {
      "anonymous": false,
      "inputs": [
        {
          "indexed": false,
          "internalType": "uint256",
          "name": "id",
          "type": "uint256"
        }
      ],
      "name": "LogItemUpdate",
      "type": "event"
    },
    {
      "anonymous": false,
      "inputs": [
        {
          "indexed": true,
          "internalType": "bytes32",
          "name": "id",
          "type": "bytes32"
        },
        {
          "indexed": true,
          "internalType": "bytes32",
          "name": "pair",
          "type": "bytes32"
        },
        {
          "indexed": true,
          "internalType": "address",
          "name": "maker",
          "type": "address"
        },
        {
          "indexed": false,
          "internalType": "contract ERC20",
          "name": "pay_gem",
          "type": "address"
        },
        {
          "indexed": false,
          "internalType": "contract ERC20",
          "name": "buy_gem",
          "type": "address"
        },
        {
          "indexed": false,
          "internalType": "uint128",
          "name": "pay_amt",
          "type": "uint128"
        },
        {
          "indexed": false,
          "internalType": "uint128",
          "name": "buy_amt",
          "type": "uint128"
        },
        {
          "indexed": false,
          "internalType": "uint64",
          "name": "timestamp",
          "type": "uint64"
        }
      ],
      "name": "LogKill",
      "type": "event"
    },
    {
      "anonymous": false,
      "inputs": [
        {
          "indexed": true,
          "internalType": "bytes32",
          "name": "id",
          "type": "bytes32"
        },
        {
          "indexed": true,
          "internalType": "bytes32",
          "name": "pair",
          "type": "bytes32"
        },
        {
          "indexed": true,
          "internalType": "address",
          "name": "maker",
          "type": "address"
        },
        {
          "indexed": false,
          "internalType": "contract ERC20",
          "name": "pay_gem",
          "type": "address"
        },
        {
          "indexed": false,
          "internalType": "contract ERC20",
          "name": "buy_gem",
          "type": "address"
        },
        {
          "indexed": false,
          "internalType": "uint128",
          "name": "pay_amt",
          "type": "uint128"
        },
        {
          "indexed": false,
          "internalType": "uint128",
          "name": "buy_amt",
          "type": "uint128"
        },
        {
          "indexed": false,
          "internalType": "uint64",
          "name": "timestamp",
          "type": "uint64"
        }
      ],
      "name": "LogMake",
      "type": "event"
    },
    {
      "anonymous": false,
      "inputs": [
        {
          "indexed": false,
          "internalType": "bool",
          "name": "isEnabled",
          "type": "bool"
        }
      ],
      "name": "LogMatchingEnabled",
      "type": "event"
    },
    {
      "anonymous": false,
      "inputs": [
        {
          "indexed": false,
          "internalType": "address",
          "name": "pay_gem",
          "type": "address"
        },
        {
          "indexed": false,
          "internalType": "uint256",
          "name": "min_amount",
          "type": "uint256"
        }
      ],
      "name": "LogMinSell",
      "type": "event"
    },
    {
      "anonymous": false,
      "inputs": [
        {
          "indexed": false,
          "internalType": "uint256",
          "name": "id",
          "type": "uint256"
        }
      ],
      "name": "LogSortedOffer",
      "type": "event"
    },
    {
      "anonymous": false,
      "inputs": [
        {
          "indexed": false,
          "internalType": "bytes32",
          "name": "id",
          "type": "bytes32"
        },
        {
          "indexed": true,
          "internalType": "bytes32",
          "name": "pair",
          "type": "bytes32"
        },
        {
          "indexed": true,
          "internalType": "address",
          "name": "maker",
          "type": "address"
        },
        {
          "indexed": false,
          "internalType": "contract ERC20",
          "name": "pay_gem",
          "type": "address"
        },
        {
          "indexed": false,
          "internalType": "contract ERC20",
          "name": "buy_gem",
          "type": "address"
        },
        {
          "indexed": true,
          "internalType": "address",
          "name": "taker",
          "type": "address"
        },
        {
          "indexed": false,
          "internalType": "uint128",
          "name": "take_amt",
          "type": "uint128"
        },
        {
          "indexed": false,
          "internalType": "uint128",
          "name": "give_amt",
          "type": "uint128"
        },
        {
          "indexed": false,
          "internalType": "uint64",
          "name": "timestamp",
          "type": "uint64"
        }
      ],
      "name": "LogTake",
      "type": "event"
    },
    {
      "anonymous": false,
      "inputs": [
        {
          "indexed": false,
          "internalType": "uint256",
          "name": "pay_amt",
          "type": "uint256"
        },
        {
          "indexed": true,
          "internalType": "address",
          "name": "pay_gem",
          "type": "address"
        },
        {
          "indexed": false,
          "internalType": "uint256",
          "name": "buy_amt",
          "type": "uint256"
        },
        {
          "indexed": true,
          "internalType": "address",
          "name": "buy_gem",
          "type": "address"
        }
      ],
      "name": "LogTrade",
      "type": "event"
    },
    {
      "anonymous": false,
      "inputs": [
        {
          "indexed": false,
          "internalType": "uint256",
          "name": "id",
          "type": "uint256"
        }
      ],
      "name": "LogUnsortedOffer",
      "type": "event"
    },
    {
      "constant": true,
      "inputs": [
        {
          "internalType": "address",
          "name": "",
          "type": "address"
        },
        {
          "internalType": "address",
          "name": "",
          "type": "address"
        }
      ],
      "name": "_best",
      "outputs": [
        {
          "internalType": "uint256",
          "name": "",
          "type": "uint256"
        }
      ],
      "payable": false,
      "stateMutability": "view",
      "type": "function"
    },
    {
      "constant": true,
      "inputs": [
        {
          "internalType": "address",
          "name": "",
          "type": "address"
        }
      ],
      "name": "_dust",
      "outputs": [
        {
          "internalType": "uint256",
          "name": "",
          "type": "uint256"
        }
      ],
      "payable": false,
      "stateMutability": "view",
      "type": "function"
    },
    {
      "constant": true,
      "inputs": [],
      "name": "_name",
      "outputs": [
        {
          "internalType": "string",
          "name": "",
          "type": "string"
        }
      ],
      "payable": false,
      "stateMutability": "view",
      "type": "function"
    },
    {
      "constant": true,
      "inputs": [
        {
          "internalType": "uint256",
          "name": "",
          "type": "uint256"
        }
      ],
      "name": "_near",
      "outputs": [
        {
          "internalType": "uint256",
          "name": "",
          "type": "uint256"
        }
      ],
      "payable": false,
      "stateMutability": "view",
      "type": "function"
    },
    {
      "constant": true,
      "inputs": [
        {
          "internalType": "uint256",
          "name": "",
          "type": "uint256"
        }
      ],
      "name": "_rank",
      "outputs": [
        {
          "internalType": "uint256",
          "name": "next",
          "type": "uint256"
        },
        {
          "internalType": "uint256",
          "name": "prev",
          "type": "uint256"
        },
        {
          "internalType": "uint256",
          "name": "delb",
          "type": "uint256"
        }
      ],
      "payable": false,
      "stateMutability": "view",
      "type": "function"
    },
    {
      "constant": true,
      "inputs": [
        {
          "internalType": "address",
          "name": "",
          "type": "address"
        },
        {
          "internalType": "address",
          "name": "",
          "type": "address"
        }
      ],
      "name": "_span",
      "outputs": [
        {
          "internalType": "uint256",
          "name": "",
          "type": "uint256"
        }
      ],
      "payable": false,
      "stateMutability": "view",
      "type": "function"
    },
    {
      "constant": false,
      "inputs": [
        {
          "internalType": "bytes32",
          "name": "id_",
          "type": "bytes32"
        }
      ],
      "name": "bump",
      "outputs": [],
      "payable": false,
      "stateMutability": "nonpayable",
      "type": "function"
    },
    {
      "constant": false,
      "inputs": [
        {
          "internalType": "uint256",
          "name": "id",
          "type": "uint256"
        },
        {
          "internalType": "uint256",
          "name": "amount",
          "type": "uint256"
        }
      ],
      "name": "buy",
      "outputs": [
        {
          "internalType": "bool",
          "name": "",
          "type": "bool"
        }
      ],
      "payable": false,
      "stateMutability": "nonpayable",
      "type": "function"
    },
    {
      "constant": false,
      "inputs": [
        {
          "internalType": "contract ERC20",
          "name": "buy_gem",
          "type": "address"
        },
        {
          "internalType": "uint256",
          "name": "buy_amt",
          "type": "uint256"
        },
        {
          "internalType": "contract ERC20",
          "name": "pay_gem",
          "type": "address"
        },
        {
          "internalType": "uint256",
          "name": "max_fill_amount",
          "type": "uint256"
        }
      ],
      "name": "buyAllAmount",
      "outputs": [
        {
          "internalType": "uint256",
          "name": "fill_amt",
          "type": "uint256"
        }
      ],
      "payable": false,
      "stateMutability": "nonpayable",
      "type": "function"
    },
    {
      "constant": true,
      "inputs": [],
      "name": "buyEnabled",
      "outputs": [
        {
          "internalType": "bool",
          "name": "",
          "type": "bool"
        }
      ],
      "payable": false,
      "stateMutability": "view",
      "type": "function"
    },
    {
      "constant": false,
      "inputs": [
        {
          "internalType": "uint256",
          "name": "id",
          "type": "uint256"
        }
      ],
      "name": "cancel",
      "outputs": [
        {
          "internalType": "bool",
          "name": "success",
          "type": "bool"
        }
      ],
      "payable": false,
      "stateMutability": "nonpayable",
      "type": "function"
    },
    {
      "constant": true,
      "inputs": [],
      "name": "close_time",
      "outputs": [
        {
          "internalType": "uint64",
          "name": "",
          "type": "uint64"
        }
      ],
      "payable": false,
      "stateMutability": "view",
      "type": "function"
    },
    {
      "constant": false,
      "inputs": [
        {
          "internalType": "uint256",
          "name": "id",
          "type": "uint256"
        }
      ],
      "name": "del_rank",
      "outputs": [
        {
          "internalType": "bool",
          "name": "",
          "type": "bool"
        }
      ],
      "payable": false,
      "stateMutability": "nonpayable",
      "type": "function"
    },
    {
      "constant": true,
      "inputs": [],
      "name": "dustId",
      "outputs": [
        {
          "internalType": "uint256",
          "name": "",
          "type": "uint256"
        }
      ],
      "payable": false,
      "stateMutability": "view",
      "type": "function"
    },
    {
      "constant": true,
      "inputs": [
        {
          "internalType": "contract ERC20",
          "name": "sell_gem",
          "type": "address"
        },
        {
          "internalType": "contract ERC20",
          "name": "buy_gem",
          "type": "address"
        }
      ],
      "name": "getBestOffer",
      "outputs": [
        {
          "internalType": "uint256",
          "name": "",
          "type": "uint256"
        }
      ],
      "payable": false,
      "stateMutability": "view",
      "type": "function"
    },
    {
      "constant": true,
      "inputs": [
        {
          "internalType": "uint256",
          "name": "id",
          "type": "uint256"
        }
      ],
      "name": "getBetterOffer",
      "outputs": [
        {
          "internalType": "uint256",
          "name": "",
          "type": "uint256"
        }
      ],
      "payable": false,
      "stateMutability": "view",
      "type": "function"
    },
    {
      "constant": true,
      "inputs": [
        {
          "internalType": "contract ERC20",
          "name": "buy_gem",
          "type": "address"
        },
        {
          "internalType": "contract ERC20",
          "name": "pay_gem",
          "type": "address"
        },
        {
          "internalType": "uint256",
          "name": "pay_amt",
          "type": "uint256"
        }
      ],
      "name": "getBuyAmount",
      "outputs": [
        {
          "internalType": "uint256",
          "name": "fill_amt",
          "type": "uint256"
        }
      ],
      "payable": false,
      "stateMutability": "view",
      "type": "function"
    },
    {
      "constant": true,
      "inputs": [],
      "name": "getFirstUnsortedOffer",
      "outputs": [
        {
          "internalType": "uint256",
          "name": "",
          "type": "uint256"
        }
      ],
      "payable": false,
      "stateMutability": "view",
      "type": "function"
    },
    {
      "constant": true,
      "inputs": [
        {
          "internalType": "contract ERC20",
          "name": "pay_gem",
          "type": "address"
        }
      ],
      "name": "getMinSell",
      "outputs": [
        {
          "internalType": "uint256",
          "name": "",
          "type": "uint256"
        }
      ],
      "payable": false,
      "stateMutability": "view",
      "type": "function"
    },
    {
      "constant": true,
      "inputs": [
        {
          "internalType": "uint256",
          "name": "id",
          "type": "uint256"
        }
      ],
      "name": "getNextUnsortedOffer",
      "outputs": [
        {
          "internalType": "uint256",
          "name": "",
          "type": "uint256"
        }
      ],
      "payable": false,
      "stateMutability": "view",
      "type": "function"
    },
    {
      "constant": true,
      "inputs": [
        {
          "internalType": "uint256",
          "name": "id",
          "type": "uint256"
        }
      ],
      "name": "getOffer",
      "outputs": [
        {
          "internalType": "uint256",
          "name": "",
          "type": "uint256"
        },
        {
          "internalType": "contract ERC20",
          "name": "",
          "type": "address"
        },
        {
          "internalType": "uint256",
          "name": "",
          "type": "uint256"
        },
        {
          "internalType": "contract ERC20",
          "name": "",
          "type": "address"
        }
      ],
      "payable": false,
      "stateMutability": "view",
      "type": "function"
    },
    {
      "constant": true,
      "inputs": [
        {
          "internalType": "contract ERC20",
          "name": "sell_gem",
          "type": "address"
        },
        {
          "internalType": "contract ERC20",
          "name": "buy_gem",
          "type": "address"
        }
      ],
      "name": "getOfferCount",
      "outputs": [
        {
          "internalType": "uint256",
          "name": "",
          "type": "uint256"
        }
      ],
      "payable": false,
      "stateMutability": "view",
      "type": "function"
    },
    {
      "constant": true,
      "inputs": [
        {
          "internalType": "uint256",
          "name": "id",
          "type": "uint256"
        }
      ],
      "name": "getOwner",
      "outputs": [
        {
          "internalType": "address",
          "name": "owner",
          "type": "address"
        }
      ],
      "payable": false,
      "stateMutability": "view",
      "type": "function"
    },
    {
      "constant": true,
      "inputs": [
        {
          "internalType": "contract ERC20",
          "name": "pay_gem",
          "type": "address"
        },
        {
          "internalType": "contract ERC20",
          "name": "buy_gem",
          "type": "address"
        },
        {
          "internalType": "uint256",
          "name": "buy_amt",
          "type": "uint256"
        }
      ],
      "name": "getPayAmount",
      "outputs": [
        {
          "internalType": "uint256",
          "name": "fill_amt",
          "type": "uint256"
        }
      ],
      "payable": false,
      "stateMutability": "view",
      "type": "function"
    },
    {
      "constant": true,
      "inputs": [],
      "name": "getTime",
      "outputs": [
        {
          "internalType": "uint64",
          "name": "",
          "type": "uint64"
        }
      ],
      "payable": false,
      "stateMutability": "view",
      "type": "function"
    },
    {
      "constant": true,
      "inputs": [
        {
          "internalType": "uint256",
          "name": "id",
          "type": "uint256"
        }
      ],
      "name": "getWorseOffer",
      "outputs": [
        {
          "internalType": "uint256",
          "name": "",
          "type": "uint256"
        }
      ],
      "payable": false,
      "stateMutability": "view",
      "type": "function"
    },
    {
      "constant": false,
      "inputs": [
        {
          "internalType": "uint256",
          "name": "id",
          "type": "uint256"
        },
        {
          "internalType": "uint256",
          "name": "pos",
          "type": "uint256"
        }
      ],
      "name": "insert",
      "outputs": [
        {
          "internalType": "bool",
          "name": "",
          "type": "bool"
        }
      ],
      "payable": false,
      "stateMutability": "nonpayable",
      "type": "function"
    },
    {
      "constant": true,
      "inputs": [
        {
          "internalType": "uint256",
          "name": "id",
          "type": "uint256"
        }
      ],
      "name": "isActive",
      "outputs": [
        {
          "internalType": "bool",
          "name": "active",
          "type": "bool"
        }
      ],
      "payable": false,
      "stateMutability": "view",
      "type": "function"
    },
    {
      "constant": true,
      "inputs": [],
      "name": "isClosed",
      "outputs": [
        {
          "internalType": "bool",
          "name": "closed",
          "type": "bool"
        }
      ],
      "payable": false,
      "stateMutability": "view",
      "type": "function"
    },
    {
      "constant": true,
      "inputs": [
        {
          "internalType": "uint256",
          "name": "id",
          "type": "uint256"
        }
      ],
      "name": "isOfferSorted",
      "outputs": [
        {
          "internalType": "bool",
          "name": "",
          "type": "bool"
        }
      ],
      "payable": false,
      "stateMutability": "view",
      "type": "function"
    },
    {
      "constant": false,
      "inputs": [
        {
          "internalType": "bytes32",
          "name": "id",
          "type": "bytes32"
        }
      ],
      "name": "kill",
      "outputs": [],
      "payable": false,
      "stateMutability": "nonpayable",
      "type": "function"
    },
    {
      "constant": true,
      "inputs": [],
      "name": "last_offer_id",
      "outputs": [
        {
          "internalType": "uint256",
          "name": "",
          "type": "uint256"
        }
      ],
      "payable": false,
      "stateMutability": "view",
      "type": "function"
    },
    {
      "constant": false,
      "inputs": [
        {
          "internalType": "contract ERC20",
          "name": "pay_gem",
          "type": "address"
        },
        {
          "internalType": "contract ERC20",
          "name": "buy_gem",
          "type": "address"
        },
        {
          "internalType": "uint128",
          "name": "pay_amt",
          "type": "uint128"
        },
        {
          "internalType": "uint128",
          "name": "buy_amt",
          "type": "uint128"
        }
      ],
      "name": "make",
      "outputs": [
        {
          "internalType": "bytes32",
          "name": "",
          "type": "bytes32"
        }
      ],
      "payable": false,
      "stateMutability": "nonpayable",
      "type": "function"
    },
    {
      "constant": true,
      "inputs": [],
      "name": "matchingEnabled",
      "outputs": [
        {
          "internalType": "bool",
          "name": "",
          "type": "bool"
        }
      ],
      "payable": false,
      "stateMutability": "view",
      "type": "function"
    },
    {
      "constant": true,
      "inputs": [],
      "name": "name",
      "outputs": [
        {
          "internalType": "string",
          "name": "",
          "type": "string"
        }
      ],
      "payable": false,
      "stateMutability": "view",
      "type": "function"
    },
    {
      "constant": false,
      "inputs": [
        {
          "internalType": "uint256",
          "name": "pay_amt",
          "type": "uint256"
        },
        {
          "internalType": "contract ERC20",
          "name": "pay_gem",
          "type": "address"
        },
        {
          "internalType": "uint256",
          "name": "buy_amt",
          "type": "uint256"
        },
        {
          "internalType": "contract ERC20",
          "name": "buy_gem",
          "type": "address"
        },
        {
          "internalType": "uint256",
          "name": "pos",
          "type": "uint256"
        }
      ],
      "name": "offer",
      "outputs": [
        {
          "internalType": "uint256",
          "name": "",
          "type": "uint256"
        }
      ],
      "payable": false,
      "stateMutability": "nonpayable",
      "type": "function"
    },
    {
      "constant": false,
      "inputs": [
        {
          "internalType": "uint256",
          "name": "pay_amt",
          "type": "uint256"
        },
        {
          "internalType": "contract ERC20",
          "name": "pay_gem",
          "type": "address"
        },
        {
          "internalType": "uint256",
          "name": "buy_amt",
          "type": "uint256"
        },
        {
          "internalType": "contract ERC20",
          "name": "buy_gem",
          "type": "address"
        },
        {
          "internalType": "uint256",
          "name": "pos",
          "type": "uint256"
        },
        {
          "internalType": "bool",
          "name": "rounding",
          "type": "bool"
        }
      ],
      "name": "offer",
      "outputs": [
        {
          "internalType": "uint256",
          "name": "",
          "type": "uint256"
        }
      ],
      "payable": false,
      "stateMutability": "nonpayable",
      "type": "function"
    },
    {
      "constant": false,
      "inputs": [
        {
          "internalType": "uint256",
          "name": "pay_amt",
          "type": "uint256"
        },
        {
          "internalType": "contract ERC20",
          "name": "pay_gem",
          "type": "address"
        },
        {
          "internalType": "uint256",
          "name": "buy_amt",
          "type": "uint256"
        },
        {
          "internalType": "contract ERC20",
          "name": "buy_gem",
          "type": "address"
        }
      ],
      "name": "offer",
      "outputs": [
        {
          "internalType": "uint256",
          "name": "",
          "type": "uint256"
        }
      ],
      "payable": false,
      "stateMutability": "nonpayable",
      "type": "function"
    },
    {
      "constant": true,
      "inputs": [
        {
          "internalType": "uint256",
          "name": "",
          "type": "uint256"
        }
      ],
      "name": "offers",
      "outputs": [
        {
          "internalType": "uint256",
          "name": "pay_amt",
          "type": "uint256"
        },
        {
          "internalType": "contract ERC20",
          "name": "pay_gem",
          "type": "address"
        },
        {
          "internalType": "uint256",
          "name": "buy_amt",
          "type": "uint256"
        },
        {
          "internalType": "contract ERC20",
          "name": "buy_gem",
          "type": "address"
        },
        {
          "internalType": "address",
          "name": "owner",
          "type": "address"
        },
        {
          "internalType": "uint64",
          "name": "timestamp",
          "type": "uint64"
        }
      ],
      "payable": false,
      "stateMutability": "view",
      "type": "function"
    },
    {
      "constant": false,
      "inputs": [
        {
          "internalType": "contract ERC20",
          "name": "pay_gem",
          "type": "address"
        },
        {
          "internalType": "uint256",
          "name": "pay_amt",
          "type": "uint256"
        },
        {
          "internalType": "contract ERC20",
          "name": "buy_gem",
          "type": "address"
        },
        {
          "internalType": "uint256",
          "name": "min_fill_amount",
          "type": "uint256"
        }
      ],
      "name": "sellAllAmount",
      "outputs": [
        {
          "internalType": "uint256",
          "name": "fill_amt",
          "type": "uint256"
        }
      ],
      "payable": false,
      "stateMutability": "nonpayable",
      "type": "function"
    },
    {
      "constant": false,
      "inputs": [
        {
          "internalType": "bool",
          "name": "buyEnabled_",
          "type": "bool"
        }
      ],
      "name": "setBuyEnabled",
      "outputs": [
        {
          "internalType": "bool",
          "name": "",
          "type": "bool"
        }
      ],
      "payable": false,
      "stateMutability": "nonpayable",
      "type": "function"
    },
    {
      "constant": false,
      "inputs": [
        {
          "internalType": "bool",
          "name": "matchingEnabled_",
          "type": "bool"
        }
      ],
      "name": "setMatchingEnabled",
      "outputs": [
        {
          "internalType": "bool",
          "name": "",
          "type": "bool"
        }
      ],
      "payable": false,
      "stateMutability": "nonpayable",
      "type": "function"
    },
    {
      "constant": false,
      "inputs": [
        {
          "internalType": "contract ERC20",
          "name": "pay_gem",
          "type": "address"
        },
        {
          "internalType": "uint256",
          "name": "dust",
          "type": "uint256"
        }
      ],
      "name": "setMinSell",
      "outputs": [
        {
          "internalType": "bool",
          "name": "",
          "type": "bool"
        }
      ],
      "payable": false,
      "stateMutability": "nonpayable",
      "type": "function"
    },
    {
      "constant": false,
      "inputs": [],
      "name": "stop",
      "outputs": [],
      "payable": false,
      "stateMutability": "nonpayable",
      "type": "function"
    },
    {
      "constant": true,
      "inputs": [],
      "name": "stopped",
      "outputs": [
        {
          "internalType": "bool",
          "name": "",
          "type": "bool"
        }
      ],
      "payable": false,
      "stateMutability": "view",
      "type": "function"
    },
    {
      "constant": false,
      "inputs": [
        {
          "internalType": "bytes32",
          "name": "id",
          "type": "bytes32"
        },
        {
          "internalType": "uint128",
          "name": "maxTakeAmount",
          "type": "uint128"
        }
      ],
      "name": "take",
      "outputs": [],
      "payable": false,
      "stateMutability": "nonpayable",
      "type": "function"
    }
  ],
  "bytecode": "0x608060405260016002600a6101000a81548160ff02191690831515021790555060016002600b6101000a81548160ff0219169083151502179055503480156200004757600080fd5b50604051620059b4380380620059b4833981810160405260408110156200006d57600080fd5b81019080805160405193929190846401000000008211156200008e57600080fd5b83820191506020820185811115620000a557600080fd5b8251866001820283011164010000000082111715620000c357600080fd5b8083526020830192505050908051906020019080838360005b83811015620000f9578082015181840152602081019050620000dc565b50505050905090810190601f168015620001275780820380516001836020036101000a031916815260200191505b50604052602001805190602001909291905050508080600260016101000a81548167ffffffffffffffff021916908367ffffffffffffffff1602179055505081600390805190602001906200017e92919062000187565b50505062000236565b828054600181600116156101000203166002900490600052602060002090601f016020900481019282601f10620001ca57805160ff1916838001178555620001fb565b82800160010185558215620001fb579182015b82811115620001fa578251825591602001919060010190620001dd565b5b5090506200020a91906200020e565b5090565b6200023391905b808211156200022f57600081600090555060010162000215565b5090565b90565b61576e80620002466000396000f3fe608060405234801561001057600080fd5b506004361061028a5760003560e01c8063779997c31161015c578063bf7c734e116100ce578063d6f1546911610087578063d6f1546914611061578063d6febde8146110a9578063e1a6f014146110f9578063f09ea2a61461119b578063f582d29314611227578063ff1fd974146112495761028a565b8063bf7c734e14610e52578063c2b6b58c14610eb8578063c2d526aa14610eda578063c41a360a14610f2a578063d28d885214610f98578063d2b420ce1461101b5761028a565b80638af82a2e116101205780638af82a2e14610ce8578063911550f414610d0657806391be90c814610d48578063943911bc14610da0578063a78d431614610de2578063b4f9b6c814610e245761028a565b8063779997c314610a735780637ca9429a14610aa15780638185402b14610b1957806382afd23b14610ba55780638a72ea6a14610beb5761028a565b806340e58ee51161020057806356ad8764116101b957806356ad8764146108cf57806361f54a79146108ed5780636377ebca1461092f578063677170e11461096157806374c1d7d3146109d957806375f12b2114610a515761028a565b806340e58ee5146106c05780634579268a14610706578063467f0b7b146107b557806349606455146107fb578063511fa48714610845578063557ed1ba1461089d5761028a565b8063093f519811610252578063093f519814610442578063144a2752146104f25780631b33d412146105745780631d834a1b1461060a578063232cae0b1461065a5780632aed1905146106785761028a565b806301492a0b1461028f5780630374fc6f146102b15780630621b4f61461032957806306fdde03146103b557806307da68f514610438575b600080fd5b6102976112cb565b604051808215151515815260200191505060405180910390f35b610313600480360360408110156102c757600080fd5b81019080803573ffffffffffffffffffffffffffffffffffffffff169060200190929190803573ffffffffffffffffffffffffffffffffffffffff1690602001909291905050506112de565b6040518082815260200191505060405180910390f35b61039f6004803603608081101561033f57600080fd5b81019080803573ffffffffffffffffffffffffffffffffffffffff16906020019092919080359060200190929190803573ffffffffffffffffffffffffffffffffffffffff16906020019092919080359060200190929190505050611365565b6040518082815260200191505060405180910390f35b6103bd611575565b6040518080602001828103825283818151815260200191508051906020019080838360005b838110156103fd5780820151818401526020810190506103e2565b50505050905090810190601f16801561042a5780820380516001836020036101000a031916815260200191505b509250505060405180910390f35b610440611617565b005b6104dc6004803603608081101561045857600080fd5b81019080803573ffffffffffffffffffffffffffffffffffffffff169060200190929190803573ffffffffffffffffffffffffffffffffffffffff16906020019092919080356fffffffffffffffffffffffffffffffff16906020019092919080356fffffffffffffffffffffffffffffffff169060200190929190505050611634565b6040518082815260200191505060405180910390f35b61055e6004803603606081101561050857600080fd5b81019080803573ffffffffffffffffffffffffffffffffffffffff169060200190929190803573ffffffffffffffffffffffffffffffffffffffff16906020019092919080359060200190929190505050611673565b6040518082815260200191505060405180910390f35b6105f4600480360360a081101561058a57600080fd5b8101908080359060200190929190803573ffffffffffffffffffffffffffffffffffffffff16906020019092919080359060200190929190803573ffffffffffffffffffffffffffffffffffffffff16906020019092919080359060200190929190505050611772565b6040518082815260200191505060405180910390f35b6106406004803603604081101561062057600080fd5b8101908080359060200190929190803590602001909291905050506117a0565b604051808215151515815260200191505060405180910390f35b6106626118d3565b6040518082815260200191505060405180910390f35b6106a66004803603602081101561068e57600080fd5b810190808035151590602001909291905050506118d9565b604051808215151515815260200191505060405180910390f35b6106ec600480360360208110156106d657600080fd5b8101908080359060200190929190505050611948565b604051808215151515815260200191505060405180910390f35b6107326004803603602081101561071c57600080fd5b8101908080359060200190929190505050611b32565b604051808581526020018473ffffffffffffffffffffffffffffffffffffffff1673ffffffffffffffffffffffffffffffffffffffff1681526020018381526020018273ffffffffffffffffffffffffffffffffffffffff1673ffffffffffffffffffffffffffffffffffffffff16815260200194505050505060405180910390f35b6107e1600480360360208110156107cb57600080fd5b8101908080359060200190929190505050611ccc565b604051808215151515815260200191505060405180910390f35b6108436004803603604081101561081157600080fd5b810190808035906020019092919080356fffffffffffffffffffffffffffffffff169060200190929190505050611e4d565b005b6108876004803603602081101561085b57600080fd5b81019080803573ffffffffffffffffffffffffffffffffffffffff169060200190929190505050611e79565b6040518082815260200191505060405180910390f35b6108a5611ec2565b604051808267ffffffffffffffff1667ffffffffffffffff16815260200191505060405180910390f35b6108d7611eca565b6040518082815260200191505060405180910390f35b6109196004803603602081101561090357600080fd5b8101908080359060200190929190505050611ed0565b6040518082815260200191505060405180910390f35b610937611eed565b604051808267ffffffffffffffff1667ffffffffffffffff16815260200191505060405180910390f35b6109c36004803603604081101561097757600080fd5b81019080803573ffffffffffffffffffffffffffffffffffffffff169060200190929190803573ffffffffffffffffffffffffffffffffffffffff169060200190929190505050611f07565b6040518082815260200191505060405180910390f35b610a3b600480360360408110156109ef57600080fd5b81019080803573ffffffffffffffffffffffffffffffffffffffff169060200190929190803573ffffffffffffffffffffffffffffffffffffffff169060200190929190505050611f2c565b6040518082815260200191505060405180910390f35b610a59611f51565b604051808215151515815260200191505060405180910390f35b610a9f60048036036020811015610a8957600080fd5b8101908080359060200190929190505050611f64565b005b610b0360048036036040811015610ab757600080fd5b81019080803573ffffffffffffffffffffffffffffffffffffffff169060200190929190803573ffffffffffffffffffffffffffffffffffffffff1690602001909291905050506122ad565b6040518082815260200191505060405180910390f35b610b8f60048036036080811015610b2f57600080fd5b81019080803573ffffffffffffffffffffffffffffffffffffffff16906020019092919080359060200190929190803573ffffffffffffffffffffffffffffffffffffffff16906020019092919080359060200190929190505050612334565b6040518082815260200191505060405180910390f35b610bd160048036036020811015610bbb57600080fd5b810190808035906020019092919050505061253e565b604051808215151515815260200191505060405180910390f35b610c1760048036036020811015610c0157600080fd5b810190808035906020019092919050505061257e565b604051808781526020018673ffffffffffffffffffffffffffffffffffffffff1673ffffffffffffffffffffffffffffffffffffffff1681526020018581526020018473ffffffffffffffffffffffffffffffffffffffff1673ffffffffffffffffffffffffffffffffffffffff1681526020018373ffffffffffffffffffffffffffffffffffffffff1673ffffffffffffffffffffffffffffffffffffffff1681526020018267ffffffffffffffff1667ffffffffffffffff168152602001965050505050505060405180910390f35b610cf061262e565b6040518082815260200191505060405180910390f35b610d3260048036036020811015610d1c57600080fd5b8101908080359060200190929190505050612638565b6040518082815260200191505060405180910390f35b610d8a60048036036020811015610d5e57600080fd5b81019080803573ffffffffffffffffffffffffffffffffffffffff169060200190929190505050612658565b6040518082815260200191505060405180910390f35b610dcc60048036036020811015610db657600080fd5b8101908080359060200190929190505050612670565b6040518082815260200191505060405180910390f35b610e0e60048036036020811015610df857600080fd5b8101908080359060200190929190505050612690565b6040518082815260200191505060405180910390f35b610e5060048036036020811015610e3a57600080fd5b81019080803590602001909291905050506126a8565b005b610e9e60048036036040811015610e6857600080fd5b81019080803573ffffffffffffffffffffffffffffffffffffffff169060200190929190803590602001909291905050506126c0565b604051808215151515815260200191505060405180910390f35b610ec061277b565b604051808215151515815260200191505060405180910390f35b610f0660048036036020811015610ef057600080fd5b81019080803590602001909291905050506127cd565b60405180848152602001838152602001828152602001935050505060405180910390f35b610f5660048036036020811015610f4057600080fd5b81019080803590602001909291905050506127f7565b604051808273ffffffffffffffffffffffffffffffffffffffff1673ffffffffffffffffffffffffffffffffffffffff16815260200191505060405180910390f35b610fa0612837565b6040518080602001828103825283818151815260200191508051906020019080838360005b83811015610fe0578082015181840152602081019050610fc5565b50505050905090810190601f16801561100d5780820380516001836020036101000a031916815260200191505b509250505060405180910390f35b6110476004803603602081101561103157600080fd5b81019080803590602001909291905050506128d5565b604051808215151515815260200191505060405180910390f35b61108f6004803603602081101561107757600080fd5b81019080803515159060200190929190505050612a0c565b604051808215151515815260200191505060405180910390f35b6110df600480360360408110156110bf57600080fd5b810190808035906020019092919080359060200190929190505050612a7b565b604051808215151515815260200191505060405180910390f35b611185600480360360c081101561110f57600080fd5b8101908080359060200190929190803573ffffffffffffffffffffffffffffffffffffffff16906020019092919080359060200190929190803573ffffffffffffffffffffffffffffffffffffffff16906020019092919080359060200190929190803515159060200190929190505050612b62565b6040518082815260200191505060405180910390f35b611211600480360360808110156111b157600080fd5b8101908080359060200190929190803573ffffffffffffffffffffffffffffffffffffffff16906020019092919080359060200190929190803573ffffffffffffffffffffffffffffffffffffffff169060200190929190505050612c88565b6040518082815260200191505060405180910390f35b61122f612d4d565b604051808215151515815260200191505060405180910390f35b6112b56004803603606081101561125f57600080fd5b81019080803573ffffffffffffffffffffffffffffffffffffffff169060200190929190803573ffffffffffffffffffffffffffffffffffffffff16906020019092919080359060200190929190505050612d60565b6040518082815260200191505060405180910390f35b6002600b9054906101000a900460ff1681565b6000600560008473ffffffffffffffffffffffffffffffffffffffff1673ffffffffffffffffffffffffffffffffffffffff16815260200190815260200160002060008373ffffffffffffffffffffffffffffffffffffffff1673ffffffffffffffffffffffffffffffffffffffff16815260200190815260200160002054905092915050565b6000600260009054906101000a900460ff16156113ea576040517f08c379a00000000000000000000000000000000000000000000000000000000081526004018080602001828103825260128152602001807f5265656e7472616e637920617474656d7074000000000000000000000000000081525060200191505060405180910390fd5b60005b600085111561155f5761140084876112de565b9050600081141561141057600080fd5b61144660016000838152602001908152602001600020600201546001600084815260200190815260200160002060000154612e5f565b670de0b6b3a76400008602101561145c5761155f565b600160008281526020019081526020016000206002015485106114e557611499826001600084815260200190815260200160002060000154612e97565b91506114bb856001600084815260200190815260200160002060020154612f1a565b94506114e08160001b6001600084815260200190815260200160002060000154611e4d565b61155a565b6000633b9aca00611531633b9aca00880261152c60016000878152602001908152602001600020600001546001600088815260200190815260200160002060020154612f9d565b612fd9565b8161153857fe5b0490506115458382612e97565b92506115548260001b82611e4d565b60009550505b6113ed565b8282101561156c57600080fd5b50949350505050565b606060038054600181600116156101000203166002900480601f01602080910402602001604051908101604052809291908181526020018280546001816001161561010002031660029004801561160d5780601f106115e25761010080835404028352916020019161160d565b820191906000526020600020905b8154815290600101906020018083116115f057829003601f168201915b5050505050905090565b6001600260096101000a81548160ff021916908315150217905550565b6000611666836fffffffffffffffffffffffffffffffff1686846fffffffffffffffffffffffffffffffff1687612c88565b60001b9050949350505050565b60008061168085856112de565b90505b600160008281526020019081526020016000206002015483111561170d576116c1826001600084815260200190815260200160002060000154612e97565b91506116e3836001600084815260200190815260200160002060020154612f1a565b92506000831115611708576116f781612670565b9050600081141561170757600080fd5b5b611683565b61176882633b9aca0061175b633b9aca00870261175660016000888152602001908152602001600020600001546001600089815260200190815260200160002060020154612f9d565b612fd9565b8161176257fe5b04612e97565b9150509392505050565b600061177c61277b565b1561178657600080fd5b61179586868686866001612b62565b905095945050505050565b6000600260009054906101000a900460ff1615611825576040517f08c379a00000000000000000000000000000000000000000000000000000000081526004018080602001828103825260128152602001807f5265656e7472616e637920617474656d7074000000000000000000000000000081525060200191505060405180910390fd5b61182e836128d5565b1561183857600080fd5b6118418361253e565b61184a57600080fd5b61185383613021565b5061185e838361311f565b7f6d5c16212bdea16850dce4d9fa2314c446bd30ce84700d9c36c7677c6d2839403384604051808373ffffffffffffffffffffffffffffffffffffffff1673ffffffffffffffffffffffffffffffffffffffff1681526020018281526020019250505060405180910390a16001905092915050565b60005481565b6000816002600b6101000a81548160ff0219169083151502179055507fea11e00ec1642be9b494019b756440e2c57dbe9e59242c4f9c64ce33fb4f41d96002600b9054906101000a900460ff16604051808215151515815260200191505060405180910390a160019050919050565b6000816119548161253e565b6119a9576040517f08c379a000000000000000000000000000000000000000000000000000000000815260040180806020018281038252602d815260200180615699602d913960400191505060405180910390fd5b6119b161277b565b806119ef57506119c0816127f7565b73ffffffffffffffffffffffffffffffffffffffff163373ffffffffffffffffffffffffffffffffffffffff16145b806119fb5750600a5481145b611a50576040517f08c379a00000000000000000000000000000000000000000000000000000000081526004018080602001828103825260748152602001806156c66074913960800191505060405180910390fd5b600260009054906101000a900460ff1615611ad3576040517f08c379a00000000000000000000000000000000000000000000000000000000081526004018080602001828103825260128152602001807f5265656e7472616e637920617474656d7074000000000000000000000000000081525060200191505060405180910390fd5b6002600b9054906101000a900460ff1615611b2157611af1836128d5565b15611b0d57611aff8361351c565b611b0857600080fd5b611b20565b611b1683613021565b611b1f57600080fd5b5b5b611b2a83613940565b915050919050565b600080600080611b40615614565b600160008781526020019081526020016000206040518060c0016040529081600082015481526020016001820160009054906101000a900473ffffffffffffffffffffffffffffffffffffffff1673ffffffffffffffffffffffffffffffffffffffff1673ffffffffffffffffffffffffffffffffffffffff168152602001600282015481526020016003820160009054906101000a900473ffffffffffffffffffffffffffffffffffffffff1673ffffffffffffffffffffffffffffffffffffffff1673ffffffffffffffffffffffffffffffffffffffff1681526020016004820160009054906101000a900473ffffffffffffffffffffffffffffffffffffffff1673ffffffffffffffffffffffffffffffffffffffff1673ffffffffffffffffffffffffffffffffffffffff1681526020016004820160149054906101000a900467ffffffffffffffff1667ffffffffffffffff1667ffffffffffffffff1681525050905080600001518160200151826040015183606001519450945094509450509193509193565b6000600260009054906101000a900460ff1615611d51576040517f08c379a00000000000000000000000000000000000000000000000000000000081526004018080602001828103825260128152602001807f5265656e7472616e637920617474656d7074000000000000000000000000000081525060200191505060405180910390fd5b611d5a8261253e565b158015611d7e57506000600460008481526020019081526020016000206002015414155b8015611da25750600a43036004600084815260200190815260200160002060020154105b611dab57600080fd5b600460008381526020019081526020016000206000808201600090556001820160009055600282016000905550507fcb9d6176c6aac6478ebb9a2754cdce22a944de29ed1f2642f8613884eba4b40c3383604051808373ffffffffffffffffffffffffffffffffffffffff1673ffffffffffffffffffffffffffffffffffffffff1681526020018281526020019250505060405180910390a160019050919050565b611e6c8260001c826fffffffffffffffffffffffffffffffff16612a7b565b611e7557600080fd5b5050565b6000600760008373ffffffffffffffffffffffffffffffffffffffff1673ffffffffffffffffffffffffffffffffffffffff168152602001908152602001600020549050919050565b600042905090565b600a5481565b600060086000838152602001908152602001600020549050919050565b600260019054906101000a900467ffffffffffffffff1681565b6006602052816000526040600020602052806000526040600020600091509150505481565b6005602052816000526040600020602052806000526040600020600091509150505481565b600260099054906101000a900460ff1681565b8060001c611f718161253e565b611f7a57600080fd5b611f8261277b565b15611f8c57600080fd5b60008260001c90506001600082815260200190815260200160002060040160009054906101000a900473ffffffffffffffffffffffffffffffffffffffff1673ffffffffffffffffffffffffffffffffffffffff166001600083815260200190815260200160002060010160009054906101000a900473ffffffffffffffffffffffffffffffffffffffff166001600084815260200190815260200160002060030160009054906101000a900473ffffffffffffffffffffffffffffffffffffffff16604051602001808373ffffffffffffffffffffffffffffffffffffffff1673ffffffffffffffffffffffffffffffffffffffff1660601b81526014018273ffffffffffffffffffffffffffffffffffffffff1673ffffffffffffffffffffffffffffffffffffffff1660601b81526014019250505060405160208183030381529060405280519060200120847f70a14c213064359ede031fd2a1645a11ce2ec825ffe6ab5cfb5b160c3ef4d0a26001600086815260200190815260200160002060010160009054906101000a900473ffffffffffffffffffffffffffffffffffffffff166001600087815260200190815260200160002060030160009054906101000a900473ffffffffffffffffffffffffffffffffffffffff1660016000888152602001908152602001600020600001546001600089815260200190815260200160002060020154600160008a815260200190815260200160002060040160149054906101000a900467ffffffffffffffff16604051808673ffffffffffffffffffffffffffffffffffffffff1673ffffffffffffffffffffffffffffffffffffffff1681526020018573ffffffffffffffffffffffffffffffffffffffff1673ffffffffffffffffffffffffffffffffffffffff168152602001846fffffffffffffffffffffffffffffffff166fffffffffffffffffffffffffffffffff168152602001836fffffffffffffffffffffffffffffffff166fffffffffffffffffffffffffffffffff1681526020018267ffffffffffffffff1667ffffffffffffffff1681526020019550505050505060405180910390a4505050565b6000600660008473ffffffffffffffffffffffffffffffffffffffff1673ffffffffffffffffffffffffffffffffffffffff16815260200190815260200160002060008373ffffffffffffffffffffffffffffffffffffffff1673ffffffffffffffffffffffffffffffffffffffff16815260200190815260200160002054905092915050565b6000600260009054906101000a900460ff16156123b9576040517f08c379a00000000000000000000000000000000000000000000000000000000081526004018080602001828103825260128152602001807f5265656e7472616e637920617474656d7074000000000000000000000000000081525060200191505060405180910390fd5b60005b6000851115612528576123cf86856112de565b905060008114156123df57600080fd5b61241560016000838152602001908152602001600020600001546001600084815260200190815260200160002060020154612e5f565b670de0b6b3a76400008602101561242b57612528565b600160008281526020019081526020016000206000015485106124b457612468826001600084815260200190815260200160002060020154612e97565b915061248a856001600084815260200190815260200160002060000154612f1a565b94506124af8160001b6001600084815260200190815260200160002060000154611e4d565b612523565b61250f82633b9aca00612502633b9aca0089026124fd60016000888152602001908152602001600020600201546001600089815260200190815260200160002060000154612f9d565b612fd9565b8161250957fe5b04612e97565b915061251e8160001b86611e4d565b600094505b6123bc565b8282111561253557600080fd5b50949350505050565b6000806001600084815260200190815260200160002060040160149054906101000a900467ffffffffffffffff1667ffffffffffffffff16119050919050565b60016020528060005260406000206000915090508060000154908060010160009054906101000a900473ffffffffffffffffffffffffffffffffffffffff16908060020154908060030160009054906101000a900473ffffffffffffffffffffffffffffffffffffffff16908060040160009054906101000a900473ffffffffffffffffffffffffffffffffffffffff16908060040160149054906101000a900467ffffffffffffffff16905086565b6000600954905090565b600060046000838152602001908152602001600020600001549050919050565b60076020528060005260406000206000915090505481565b600060046000838152602001908152602001600020600101549050919050565b60086020528060005260406000206000915090505481565b6126b48160001c611948565b6126bd57600080fd5b50565b600081600760008573ffffffffffffffffffffffffffffffffffffffff1673ffffffffffffffffffffffffffffffffffffffff168152602001908152602001600020819055507fc28d56449b0bb31e64ee7487e061f57a2e72aea8019d810832f26dda099823d08383604051808373ffffffffffffffffffffffffffffffffffffffff1673ffffffffffffffffffffffffffffffffffffffff1681526020018281526020019250505060405180910390a16001905092915050565b6000600260099054906101000a900460ff16806127c85750600260019054906101000a900467ffffffffffffffff1667ffffffffffffffff166127bc611ec2565b67ffffffffffffffff16115b905090565b60046020528060005260406000206000915090508060000154908060010154908060020154905083565b60006001600083815260200190815260200160002060040160009054906101000a900473ffffffffffffffffffffffffffffffffffffffff169050919050565b60038054600181600116156101000203166002900480601f0160208091040260200160405190810160405280929190818152602001828054600181600116156101000203166002900480156128cd5780601f106128a2576101008083540402835291602001916128cd565b820191906000526020600020905b8154815290600101906020018083116128b057829003601f168201915b505050505081565b600080600460008481526020019081526020016000206000015414158061291357506000600460008481526020019081526020016000206001015414155b80612a05575081600560006001600086815260200190815260200160002060010160009054906101000a900473ffffffffffffffffffffffffffffffffffffffff1673ffffffffffffffffffffffffffffffffffffffff1673ffffffffffffffffffffffffffffffffffffffff16815260200190815260200160002060006001600086815260200190815260200160002060030160009054906101000a900473ffffffffffffffffffffffffffffffffffffffff1673ffffffffffffffffffffffffffffffffffffffff1673ffffffffffffffffffffffffffffffffffffffff16815260200190815260200160002054145b9050919050565b6000816002600a6101000a81548160ff0219169083151502179055507f7089e4f0bcc948f9f723a361590c32d9c2284da7ab1981b1249ad2edb9f953c16002600a9054906101000a900460ff16604051808215151515815260200191505060405180910390a160019050919050565b600082612a878161253e565b612a9057600080fd5b612a9861277b565b15612aa257600080fd5b600260009054906101000a900460ff1615612b25576040517f08c379a00000000000000000000000000000000000000000000000000000000081526004018080602001828103825260128152602001807f5265656e7472616e637920617474656d7074000000000000000000000000000081525060200191505060405180910390fd5b6156966002600b9054906101000a900460ff16612b4457613fa6612b48565b6147be5b9050612b5885858363ffffffff16565b9250505092915050565b6000612b6c61277b565b15612b7657600080fd5b600260009054906101000a900460ff1615612bf9576040517f08c379a00000000000000000000000000000000000000000000000000000000081526004018080602001828103825260128152602001807f5265656e7472616e637920617474656d7074000000000000000000000000000081525060200191505060405180910390fd5b86600760008873ffffffffffffffffffffffffffffffffffffffff1673ffffffffffffffffffffffffffffffffffffffff168152602001908152602001600020541115612c4557600080fd5b6002600b9054906101000a900460ff1615612c6f57612c688787878787876148f3565b9050612c7e565b612c7b87878787614b4c565b90505b9695505050505050565b6000600260009054906101000a900460ff1615612d0d576040517f08c379a00000000000000000000000000000000000000000000000000000000081526004018080602001828103825260128152602001807f5265656e7472616e637920617474656d7074000000000000000000000000000081525060200191505060405180910390fd5b6156966002600b9054906101000a900460ff16612d2c57614b4c612d30565b6151c25b9050612d42868686868563ffffffff16565b915050949350505050565b6002600a9054906101000a900460ff1681565b600080612d6d84866112de565b90505b6001600082815260200190815260200160002060000154831115612dfa57612dae826001600084815260200190815260200160002060020154612e97565b9150612dd0836001600084815260200190815260200160002060000154612f1a565b92506000831115612df557612de481612670565b90506000811415612df457600080fd5b5b612d70565b612e5582633b9aca00612e48633b9aca008702612e4360016000888152602001908152602001600020600201546001600089815260200190815260200160002060000154612f9d565b612fd9565b81612e4f57fe5b04612e97565b9150509392505050565b600081612e87612e7785670de0b6b3a764000061527e565b60028581612e8157fe5b04612e97565b81612e8e57fe5b04905092915050565b6000828284019150811015612f14576040517f08c379a00000000000000000000000000000000000000000000000000000000081526004018080602001828103825260148152602001807f64732d6d6174682d6164642d6f766572666c6f7700000000000000000000000081525060200191505060405180910390fd5b92915050565b6000828284039150811115612f97576040517f08c379a00000000000000000000000000000000000000000000000000000000081526004018080602001828103825260158152602001807f64732d6d6174682d7375622d756e646572666c6f77000000000000000000000081525060200191505060405180910390fd5b92915050565b600081612fc9612fb9856b033b2e3c9fd0803ce800000061527e565b60028581612fc357fe5b04612e97565b81612fd057fe5b04905092915050565b60006b033b2e3c9fd0803ce8000000613011612ff5858561527e565b60026b033b2e3c9fd0803ce80000008161300b57fe5b04612e97565b8161301857fe5b04905092915050565b60008060095490506000819050613037846128d5565b1561304157600080fd5b8360095414156130895760086000858152602001908152602001600020546009819055506000600860008681526020019081526020016000208190555060019250505061311a565b5b60008211801561309a5750838214155b156130bd578190506008600083815260200190815260200160002054915061308a565b8382146130cf5760009250505061311a565b60086000858152602001908152602001600020546008600083815260200190815260200160002081905550600060086000868152602001908152602001600020819055506001925050505b919050565b6131288261253e565b61313157600080fd5b60006001600084815260200190815260200160002060030160009054906101000a900473ffffffffffffffffffffffffffffffffffffffff16905060006001600085815260200190815260200160002060010160009054906101000a900473ffffffffffffffffffffffffffffffffffffffff16905060008084148061321957508173ffffffffffffffffffffffffffffffffffffffff166001600086815260200190815260200160002060010160009054906101000a900473ffffffffffffffffffffffffffffffffffffffff1673ffffffffffffffffffffffffffffffffffffffff1614155b8061328657508273ffffffffffffffffffffffffffffffffffffffff166001600086815260200190815260200160002060030160009054906101000a900473ffffffffffffffffffffffffffffffffffffffff1673ffffffffffffffffffffffffffffffffffffffff1614155b806132975750613295846128d5565b155b6132aa576132a58585615313565b6132b4565b6132b385615413565b5b9350600084146133125760046000858152602001908152602001600020600101549050846004600086815260200190815260200160002060010181905550836004600087815260200190815260200160002060000181905550613413565b600560008373ffffffffffffffffffffffffffffffffffffffff1673ffffffffffffffffffffffffffffffffffffffff16815260200190815260200160002060008473ffffffffffffffffffffffffffffffffffffffff1673ffffffffffffffffffffffffffffffffffffffff16815260200190815260200160002054905084600560008473ffffffffffffffffffffffffffffffffffffffff1673ffffffffffffffffffffffffffffffffffffffff16815260200190815260200160002060008573ffffffffffffffffffffffffffffffffffffffff1673ffffffffffffffffffffffffffffffffffffffff168152602001908152602001600020819055505b60008114613452578460046000838152602001908152602001600020600001819055508060046000878152602001908152602001600020600101819055505b600660008373ffffffffffffffffffffffffffffffffffffffff1673ffffffffffffffffffffffffffffffffffffffff16815260200190815260200160002060008473ffffffffffffffffffffffffffffffffffffffff1673ffffffffffffffffffffffffffffffffffffffff168152602001908152602001600020600081548092919060010191905055507f20fb9bad86c18f7e22e8065258790d9416a7d2df8ff05f80f82c46d38b925acd856040518082815260200191505060405180910390a15050505050565b6000806001600084815260200190815260200160002060030160009054906101000a900473ffffffffffffffffffffffffffffffffffffffff16905060006001600085815260200190815260200160002060010160009054906101000a900473ffffffffffffffffffffffffffffffffffffffff1690506000600660008373ffffffffffffffffffffffffffffffffffffffff1673ffffffffffffffffffffffffffffffffffffffff16815260200190815260200160002060008473ffffffffffffffffffffffffffffffffffffffff1673ffffffffffffffffffffffffffffffffffffffff168152602001908152602001600020541161361c57600080fd5b600060046000868152602001908152602001600020600201541480156136475750613646846128d5565b5b61365057600080fd5b600560008273ffffffffffffffffffffffffffffffffffffffff1673ffffffffffffffffffffffffffffffffffffffff16815260200190815260200160002060008373ffffffffffffffffffffffffffffffffffffffff1673ffffffffffffffffffffffffffffffffffffffff16815260200190815260200160002054841461375757836004600060046000888152602001908152602001600020600001548152602001908152602001600020600101541461370b57600080fd5b60046000858152602001908152602001600020600101546004600060046000888152602001908152602001600020600001548152602001908152602001600020600101819055506137ef565b6004600085815260200190815260200160002060010154600560008373ffffffffffffffffffffffffffffffffffffffff1673ffffffffffffffffffffffffffffffffffffffff16815260200190815260200160002060008473ffffffffffffffffffffffffffffffffffffffff1673ffffffffffffffffffffffffffffffffffffffff168152602001908152602001600020819055505b600060046000868152602001908152602001600020600101541461388d57836004600060046000888152602001908152602001600020600101548152602001908152602001600020600001541461384557600080fd5b60046000858152602001908152602001600020600001546004600060046000888152602001908152602001600020600101548152602001908152602001600020600001819055505b600660008273ffffffffffffffffffffffffffffffffffffffff1673ffffffffffffffffffffffffffffffffffffffff16815260200190815260200160002060008373ffffffffffffffffffffffffffffffffffffffff1673ffffffffffffffffffffffffffffffffffffffff1681526020019081526020016000206000815480929190600190039190505550436004600086815260200190815260200160002060020181905550600192505050919050565b60008161394c8161253e565b6139a1576040517f08c379a000000000000000000000000000000000000000000000000000000000815260040180806020018281038252602d815260200180615699602d913960400191505060405180910390fd5b6139a961277b565b806139e757506139b8816127f7565b73ffffffffffffffffffffffffffffffffffffffff163373ffffffffffffffffffffffffffffffffffffffff16145b806139f35750600a5481145b613a48576040517f08c379a00000000000000000000000000000000000000000000000000000000081526004018080602001828103825260748152602001806156c66074913960800191505060405180910390fd5b600260009054906101000a900460ff1615613a6257600080fd5b6001600260006101000a81548160ff021916908315150217905550613a85615614565b600160008581526020019081526020016000206040518060c0016040529081600082015481526020016001820160009054906101000a900473ffffffffffffffffffffffffffffffffffffffff1673ffffffffffffffffffffffffffffffffffffffff1673ffffffffffffffffffffffffffffffffffffffff168152602001600282015481526020016003820160009054906101000a900473ffffffffffffffffffffffffffffffffffffffff1673ffffffffffffffffffffffffffffffffffffffff1673ffffffffffffffffffffffffffffffffffffffff1681526020016004820160009054906101000a900473ffffffffffffffffffffffffffffffffffffffff1673ffffffffffffffffffffffffffffffffffffffff1673ffffffffffffffffffffffffffffffffffffffff1681526020016004820160149054906101000a900467ffffffffffffffff1667ffffffffffffffff1667ffffffffffffffff16815250509050600160008581526020019081526020016000206000808201600090556001820160006101000a81549073ffffffffffffffffffffffffffffffffffffffff021916905560028201600090556003820160006101000a81549073ffffffffffffffffffffffffffffffffffffffff02191690556004820160006101000a81549073ffffffffffffffffffffffffffffffffffffffff02191690556004820160146101000a81549067ffffffffffffffff02191690555050806020015173ffffffffffffffffffffffffffffffffffffffff1663a9059cbb826080015183600001516040518363ffffffff1660e01b8152600401808373ffffffffffffffffffffffffffffffffffffffff1673ffffffffffffffffffffffffffffffffffffffff16815260200182815260200192505050602060405180830381600087803b158015613d3657600080fd5b505af1158015613d4a573d6000803e3d6000fd5b505050506040513d6020811015613d6057600080fd5b8101908080519060200190929190505050613d7a57600080fd5b7fa2c251311b1a7a475913900a2a73dc9789a21b04bc737e050bbc506dd4eb3488846040518082815260200191505060405180910390a1806080015173ffffffffffffffffffffffffffffffffffffffff1681602001518260600151604051602001808373ffffffffffffffffffffffffffffffffffffffff1673ffffffffffffffffffffffffffffffffffffffff1660601b81526014018273ffffffffffffffffffffffffffffffffffffffff1673ffffffffffffffffffffffffffffffffffffffff1660601b815260140192505050604051602081830303815290604052805190602001208560001b7f9577941d28fff863bfbee4694a6a4a56fb09e169619189d2eaa750b5b4819995846020015185606001518660000151876040015142604051808673ffffffffffffffffffffffffffffffffffffffff1673ffffffffffffffffffffffffffffffffffffffff1681526020018573ffffffffffffffffffffffffffffffffffffffff1673ffffffffffffffffffffffffffffffffffffffff168152602001846fffffffffffffffffffffffffffffffff166fffffffffffffffffffffffffffffffff168152602001836fffffffffffffffffffffffffffffffff166fffffffffffffffffffffffffffffffff1681526020018267ffffffffffffffff1667ffffffffffffffff1681526020019550505050505060405180910390a460019250506000600260006101000a81548160ff02191690831515021790555050919050565b600082613fb28161253e565b613fbb57600080fd5b613fc361277b565b15613fcd57600080fd5b600260009054906101000a900460ff1615613fe757600080fd5b6001600260006101000a81548160ff02191690831515021790555061400a615614565b600160008681526020019081526020016000206040518060c0016040529081600082015481526020016001820160009054906101000a900473ffffffffffffffffffffffffffffffffffffffff1673ffffffffffffffffffffffffffffffffffffffff1673ffffffffffffffffffffffffffffffffffffffff168152602001600282015481526020016003820160009054906101000a900473ffffffffffffffffffffffffffffffffffffffff1673ffffffffffffffffffffffffffffffffffffffff1673ffffffffffffffffffffffffffffffffffffffff1681526020016004820160009054906101000a900473ffffffffffffffffffffffffffffffffffffffff1673ffffffffffffffffffffffffffffffffffffffff1673ffffffffffffffffffffffffffffffffffffffff1681526020016004820160149054906101000a900467ffffffffffffffff1667ffffffffffffffff1667ffffffffffffffff168152505090506000816000015161418786846040015161527e565b8161418e57fe5b04905080816fffffffffffffffffffffffffffffffff16146141af57600080fd5b84856fffffffffffffffffffffffffffffffff16146141cd57600080fd5b60008514806141dc5750600081145b806141ea5750816000015185115b806141f85750816040015181115b156142085760009350505061479c565b614216826000015186612f1a565b600160008881526020019081526020016000206000018190555061423e826040015182612f1a565b6001600088815260200190815260200160002060020181905550816060015173ffffffffffffffffffffffffffffffffffffffff166323b872dd338460800151846040518463ffffffff1660e01b8152600401808473ffffffffffffffffffffffffffffffffffffffff1673ffffffffffffffffffffffffffffffffffffffff1681526020018373ffffffffffffffffffffffffffffffffffffffff1673ffffffffffffffffffffffffffffffffffffffff1681526020018281526020019350505050602060405180830381600087803b15801561431b57600080fd5b505af115801561432f573d6000803e3d6000fd5b505050506040513d602081101561434557600080fd5b810190808051906020019092919050505061435f57600080fd5b816020015173ffffffffffffffffffffffffffffffffffffffff1663a9059cbb33876040518363ffffffff1660e01b8152600401808373ffffffffffffffffffffffffffffffffffffffff1673ffffffffffffffffffffffffffffffffffffffff16815260200182815260200192505050602060405180830381600087803b1580156143ea57600080fd5b505af11580156143fe573d6000803e3d6000fd5b505050506040513d602081101561441457600080fd5b810190808051906020019092919050505061442e57600080fd5b7fa2c251311b1a7a475913900a2a73dc9789a21b04bc737e050bbc506dd4eb3488866040518082815260200191505060405180910390a13373ffffffffffffffffffffffffffffffffffffffff16826080015173ffffffffffffffffffffffffffffffffffffffff1683602001518460600151604051602001808373ffffffffffffffffffffffffffffffffffffffff1673ffffffffffffffffffffffffffffffffffffffff1660601b81526014018273ffffffffffffffffffffffffffffffffffffffff1673ffffffffffffffffffffffffffffffffffffffff1660601b815260140192505050604051602081830303815290604052805190602001207f3383e3357c77fd2e3a4b30deea81179bc70a795d053d14d5b7f2f01d0fd4596f8960001b866020015187606001518b8842604051808781526020018673ffffffffffffffffffffffffffffffffffffffff1673ffffffffffffffffffffffffffffffffffffffff1681526020018573ffffffffffffffffffffffffffffffffffffffff1673ffffffffffffffffffffffffffffffffffffffff168152602001846fffffffffffffffffffffffffffffffff166fffffffffffffffffffffffffffffffff168152602001836fffffffffffffffffffffffffffffffff166fffffffffffffffffffffffffffffffff1681526020018267ffffffffffffffff1667ffffffffffffffff168152602001965050505050505060405180910390a4816060015173ffffffffffffffffffffffffffffffffffffffff16826020015173ffffffffffffffffffffffffffffffffffffffff167f819e390338feffe95e2de57172d6faf337853dfd15c7a09a32d76f7fd24438758784604051808381526020018281526020019250505060405180910390a360006001600088815260200190815260200160002060000154141561479557600160008781526020019081526020016000206000808201600090556001820160006101000a81549073ffffffffffffffffffffffffffffffffffffffff021916905560028201600090556003820160006101000a81549073ffffffffffffffffffffffffffffffffffffffff02191690556004820160006101000a81549073ffffffffffffffffffffffffffffffffffffffff02191690556004820160146101000a81549067ffffffffffffffff021916905550505b6001935050505b6000600260006101000a81548160ff0219169083151502179055505092915050565b60006002600a9054906101000a900460ff166147d957600080fd5b600160008481526020019081526020016000206000015482141561482057614800836128d5565b156148145761480e8361351c565b5061481f565b61481d83613021565b505b5b61482a8383613fa6565b61483357600080fd5b61483c8361253e565b80156148d25750600760006001600086815260200190815260200160002060010160009054906101000a900473ffffffffffffffffffffffffffffffffffffffff1673ffffffffffffffffffffffffffffffffffffffff1673ffffffffffffffffffffffffffffffffffffffff168152602001908152602001600020546001600085815260200190815260200160002060000154105b156148e95782600a819055506148e783611948565b505b6001905092915050565b60008060008060005b6000600560008a73ffffffffffffffffffffffffffffffffffffffff1673ffffffffffffffffffffffffffffffffffffffff16815260200190815260200160002060008c73ffffffffffffffffffffffffffffffffffffffff1673ffffffffffffffffffffffffffffffffffffffff168152602001908152602001600020541115614ac557600560008973ffffffffffffffffffffffffffffffffffffffff1673ffffffffffffffffffffffffffffffffffffffff16815260200190815260200160002060008b73ffffffffffffffffffffffffffffffffffffffff1673ffffffffffffffffffffffffffffffffffffffff168152602001908152602001600020549350600160008581526020019081526020016000206002015491506001600085815260200190815260200160002060000154905085614a3e576000614a46565b808b8a840101015b614a508c8361527e565b01614a5b838b61527e565b1115614a6657614ac5565b614a7984614a74838c615567565b612a7b565b50889250614a9089614a8b838c615567565b612f1a565b985082614a9d8a8d61527e565b81614aa457fe5b049a5060008b1480614ab65750600089145b15614ac057614ac5565b6148fc565b600089118015614ad5575060008b115b8015614b205750600760008b73ffffffffffffffffffffffffffffffffffffffff1673ffffffffffffffffffffffffffffffffffffffff168152602001908152602001600020548b10155b15614b3e57614b318b8b8b8b614b4c565b9450614b3d858861311f565b5b505050509695505050505050565b6000614b5661277b565b15614b6057600080fd5b600260009054906101000a900460ff1615614b7a57600080fd5b6001600260006101000a81548160ff02191690831515021790555084856fffffffffffffffffffffffffffffffff1614614bb357600080fd5b82836fffffffffffffffffffffffffffffffff1614614bd157600080fd5b60008511614bde57600080fd5b600073ffffffffffffffffffffffffffffffffffffffff168473ffffffffffffffffffffffffffffffffffffffff161415614c1857600080fd5b60008311614c2557600080fd5b600073ffffffffffffffffffffffffffffffffffffffff168273ffffffffffffffffffffffffffffffffffffffff161415614c5f57600080fd5b8173ffffffffffffffffffffffffffffffffffffffff168473ffffffffffffffffffffffffffffffffffffffff161415614c9857600080fd5b614ca0615614565b8581600001818152505084816020019073ffffffffffffffffffffffffffffffffffffffff16908173ffffffffffffffffffffffffffffffffffffffff16815250508381604001818152505082816060019073ffffffffffffffffffffffffffffffffffffffff16908173ffffffffffffffffffffffffffffffffffffffff168152505033816080019073ffffffffffffffffffffffffffffffffffffffff16908173ffffffffffffffffffffffffffffffffffffffff1681525050428160a0019067ffffffffffffffff16908167ffffffffffffffff1681525050614d84615581565b915080600160008481526020019081526020016000206000820151816000015560208201518160010160006101000a81548173ffffffffffffffffffffffffffffffffffffffff021916908373ffffffffffffffffffffffffffffffffffffffff1602179055506040820151816002015560608201518160030160006101000a81548173ffffffffffffffffffffffffffffffffffffffff021916908373ffffffffffffffffffffffffffffffffffffffff16021790555060808201518160040160006101000a81548173ffffffffffffffffffffffffffffffffffffffff021916908373ffffffffffffffffffffffffffffffffffffffff16021790555060a08201518160040160146101000a81548167ffffffffffffffff021916908367ffffffffffffffff1602179055509050508473ffffffffffffffffffffffffffffffffffffffff166323b872dd3330896040518463ffffffff1660e01b8152600401808473ffffffffffffffffffffffffffffffffffffffff1673ffffffffffffffffffffffffffffffffffffffff1681526020018373ffffffffffffffffffffffffffffffffffffffff1673ffffffffffffffffffffffffffffffffffffffff1681526020018281526020019350505050602060405180830381600087803b158015614f7057600080fd5b505af1158015614f84573d6000803e3d6000fd5b505050506040513d6020811015614f9a57600080fd5b8101908080519060200190929190505050614fb457600080fd5b7fa2c251311b1a7a475913900a2a73dc9789a21b04bc737e050bbc506dd4eb3488826040518082815260200191505060405180910390a13373ffffffffffffffffffffffffffffffffffffffff168584604051602001808373ffffffffffffffffffffffffffffffffffffffff1673ffffffffffffffffffffffffffffffffffffffff1660601b81526014018273ffffffffffffffffffffffffffffffffffffffff1673ffffffffffffffffffffffffffffffffffffffff1660601b815260140192505050604051602081830303815290604052805190602001208360001b7f773ff502687307abfa024ac9f62f9752a0d210dac2ffd9a29e38e12e2ea82c8288878b8a42604051808673ffffffffffffffffffffffffffffffffffffffff1673ffffffffffffffffffffffffffffffffffffffff1681526020018573ffffffffffffffffffffffffffffffffffffffff1673ffffffffffffffffffffffffffffffffffffffff168152602001846fffffffffffffffffffffffffffffffff166fffffffffffffffffffffffffffffffff168152602001836fffffffffffffffffffffffffffffffff166fffffffffffffffffffffffffffffffff1681526020018267ffffffffffffffff1667ffffffffffffffff1681526020019550505050505060405180910390a4506000600260006101000a81548160ff021916908315150217905550949350505050565b600084600760008673ffffffffffffffffffffffffffffffffffffffff1673ffffffffffffffffffffffffffffffffffffffff16815260200190815260200160002054111561521057600080fd5b61521c85858585614b4c565b90506009546008600083815260200190815260200160002081905550806009819055507f8173832a493e0a3989e521458e55bfe9feac9f9b675a94e100b9d5a85f814862816040518082815260200191505060405180910390a1949350505050565b60008082148061529b575082828385029250828161529857fe5b04145b61530d576040517f08c379a00000000000000000000000000000000000000000000000000000000081526004018080602001828103825260148152602001807f64732d6d6174682d6d756c2d6f766572666c6f7700000000000000000000000081525060200191505060405180910390fd5b92915050565b600080831161532157600080fd5b5b6000821415801561533957506153378261253e565b155b1561535c5760046000838152602001908152602001600020600101549150615322565b60008214156153755761536e83615413565b905061540d565b61537f838361559c565b156153cd5760005b6000831415801561539e575061539d848461559c565b5b156153c45782905060046000848152602001908152602001600020600101549250615387565b8091505061540d565b5b600082141580156153e657506153e4838361559c565b155b1561540957600460008381526020019081526020016000206000015491506153ce565b8190505b92915050565b600080821161542157600080fd5b60006001600084815260200190815260200160002060030160009054906101000a900473ffffffffffffffffffffffffffffffffffffffff16905060006001600085815260200190815260200160002060010160009054906101000a900473ffffffffffffffffffffffffffffffffffffffff1690506000600560008373ffffffffffffffffffffffffffffffffffffffff1673ffffffffffffffffffffffffffffffffffffffff16815260200190815260200160002060008473ffffffffffffffffffffffffffffffffffffffff1673ffffffffffffffffffffffffffffffffffffffff16815260200190815260200160002054905060008090505b600082141580156155355750615534868361559c565b5b1561555b578190506004600083815260200190815260200160002060010154915061551e565b80945050505050919050565b6000818311156155775781615579565b825b905092915050565b60008060008154809291906001019190505550600054905090565b60006155d46001600084815260200190815260200160002060020154600160008681526020019081526020016000206000015461527e565b61560a6001600086815260200190815260200160002060020154600160008681526020019081526020016000206000015461527e565b1015905092915050565b6040518060c0016040528060008152602001600073ffffffffffffffffffffffffffffffffffffffff16815260200160008152602001600073ffffffffffffffffffffffffffffffffffffffff168152602001600073ffffffffffffffffffffffffffffffffffffffff168152602001600067ffffffffffffffff1681525090565bfefe4f66666572207761732064656c65746564206f722074616b656e2c206f72206e6576657220657869737465642e4f666665722063616e206e6f742062652063616e63656c6c656420626563617573652075736572206973206e6f74206f776e65722c20616e64206d61726b6574206973206f70656e2c20616e64206f666665722073656c6c7320726571756972656420616d6f756e74206f6620746f6b656e732ea265627a7a723158207d6749192a2cc0d6e5b7f338da83538d5d10d48dcc483fa03f029a18552e822464736f6c63430005110032",
  "compiler": {
    "name": "solc",
    "version": "0.5.17+commit.d19bba13.Emscripten.clang",
    "optimizer": {
      "enabled": false,
      "runs": 200
    },
    "evmVersion": "petersburg"
  }
}